{
  "_format": "hh-sol-artifact-1",
  "contractName": "NbaPlay",
  "sourceName": "contracts/NbaPlay.sol",
  "abi": [
    {
      "inputs": [
        {
          "internalType": "uint256",
          "name": "_taxpct",
          "type": "uint256"
        }
      ],
      "stateMutability": "nonpayable",
      "type": "constructor"
    },
    {
      "inputs": [],
      "name": "_totalGames",
      "outputs": [
        {
          "internalType": "uint256",
          "name": "",
          "type": "uint256"
        }
      ],
      "stateMutability": "view",
      "type": "function"
    },
    {
      "inputs": [],
      "name": "_totalPlayers",
      "outputs": [
        {
          "internalType": "uint256",
          "name": "",
          "type": "uint256"
        }
      ],
      "stateMutability": "view",
      "type": "function"
    },
    {
      "inputs": [
        {
          "internalType": "uint256",
          "name": "_totalPower",
          "type": "uint256"
        }
      ],
      "name": "createGame",
      "outputs": [],
      "stateMutability": "payable",
      "type": "function"
    },
    {
      "inputs": [
        {
          "internalType": "uint256",
          "name": "gameId",
          "type": "uint256"
        }
      ],
      "name": "deleteGame",
      "outputs": [],
      "stateMutability": "nonpayable",
      "type": "function"
    },
    {
      "inputs": [
        {
          "internalType": "uint256",
          "name": "",
          "type": "uint256"
        }
      ],
      "name": "gameExists",
      "outputs": [
        {
          "internalType": "bool",
          "name": "",
          "type": "bool"
        }
      ],
      "stateMutability": "view",
      "type": "function"
    },
    {
      "inputs": [
        {
          "internalType": "uint256",
          "name": "",
          "type": "uint256"
        }
      ],
      "name": "games",
      "outputs": [
        {
          "internalType": "uint256",
          "name": "id",
          "type": "uint256"
        },
        {
          "internalType": "address",
          "name": "owner",
          "type": "address"
        },
        {
          "internalType": "uint256",
          "name": "participants",
          "type": "uint256"
        },
        {
          "internalType": "uint256",
          "name": "stake",
          "type": "uint256"
        },
        {
          "internalType": "address",
          "name": "winner",
          "type": "address"
        },
        {
          "internalType": "bool",
          "name": "deleted",
          "type": "bool"
        },
        {
          "internalType": "bool",
          "name": "paidOut",
          "type": "bool"
        }
      ],
      "stateMutability": "view",
      "type": "function"
    },
    {
      "inputs": [
        {
          "internalType": "uint256",
          "name": "gameId",
          "type": "uint256"
        }
      ],
      "name": "getGame",
      "outputs": [
        {
          "components": [
            {
              "internalType": "uint256",
              "name": "id",
              "type": "uint256"
            },
            {
              "internalType": "address",
              "name": "owner",
              "type": "address"
            },
            {
              "internalType": "uint256",
              "name": "participants",
              "type": "uint256"
            },
            {
              "internalType": "uint256",
              "name": "stake",
              "type": "uint256"
            },
            {
              "internalType": "address",
              "name": "winner",
              "type": "address"
            },
            {
              "internalType": "bool",
              "name": "deleted",
              "type": "bool"
            },
            {
              "internalType": "bool",
              "name": "paidOut",
              "type": "bool"
            }
          ],
          "internalType": "struct NbaPlay.GameStruct",
          "name": "",
          "type": "tuple"
        }
      ],
      "stateMutability": "view",
      "type": "function"
    },
    {
      "inputs": [],
      "name": "getGames",
      "outputs": [
        {
          "components": [
            {
              "internalType": "uint256",
              "name": "id",
              "type": "uint256"
            },
            {
              "internalType": "address",
              "name": "owner",
              "type": "address"
            },
            {
              "internalType": "uint256",
              "name": "participants",
              "type": "uint256"
            },
            {
              "internalType": "uint256",
              "name": "stake",
              "type": "uint256"
            },
            {
              "internalType": "address",
              "name": "winner",
              "type": "address"
            },
            {
              "internalType": "bool",
              "name": "deleted",
              "type": "bool"
            },
            {
              "internalType": "bool",
              "name": "paidOut",
              "type": "bool"
            }
          ],
          "internalType": "struct NbaPlay.GameStruct[]",
          "name": "Games",
          "type": "tuple[]"
        }
      ],
      "stateMutability": "view",
      "type": "function"
    },
    {
      "inputs": [],
      "name": "getMyGames",
      "outputs": [
        {
          "components": [
            {
              "internalType": "uint256",
              "name": "id",
              "type": "uint256"
            },
            {
              "internalType": "address",
              "name": "owner",
              "type": "address"
            },
            {
              "internalType": "uint256",
              "name": "participants",
              "type": "uint256"
            },
            {
              "internalType": "uint256",
              "name": "stake",
              "type": "uint256"
            },
            {
              "internalType": "address",
              "name": "winner",
              "type": "address"
            },
            {
              "internalType": "bool",
              "name": "deleted",
              "type": "bool"
            },
            {
              "internalType": "bool",
              "name": "paidOut",
              "type": "bool"
            }
          ],
          "internalType": "struct NbaPlay.GameStruct[]",
          "name": "Games",
          "type": "tuple[]"
        }
      ],
      "stateMutability": "view",
      "type": "function"
    },
    {
      "inputs": [],
      "name": "getPaidOutGames",
      "outputs": [
        {
          "components": [
            {
              "internalType": "uint256",
              "name": "id",
              "type": "uint256"
            },
            {
              "internalType": "address",
              "name": "owner",
              "type": "address"
            },
            {
              "internalType": "uint256",
              "name": "participants",
              "type": "uint256"
            },
            {
              "internalType": "uint256",
              "name": "stake",
              "type": "uint256"
            },
            {
              "internalType": "address",
              "name": "winner",
              "type": "address"
            },
            {
              "internalType": "bool",
              "name": "deleted",
              "type": "bool"
            },
            {
              "internalType": "bool",
              "name": "paidOut",
              "type": "bool"
            }
          ],
          "internalType": "struct NbaPlay.GameStruct[]",
          "name": "Games",
          "type": "tuple[]"
        }
      ],
      "stateMutability": "view",
      "type": "function"
    },
    {
      "inputs": [
        {
          "internalType": "uint256",
          "name": "_id",
          "type": "uint256"
        }
      ],
      "name": "getPlayers",
      "outputs": [
        {
          "components": [
            {
              "internalType": "uint256",
              "name": "id",
              "type": "uint256"
            },
            {
              "internalType": "uint256",
              "name": "gameId",
              "type": "uint256"
            },
            {
              "internalType": "address",
              "name": "account",
              "type": "address"
            },
            {
              "internalType": "uint256",
              "name": "power",
              "type": "uint256"
            }
          ],
          "internalType": "struct NbaPlay.PlayerStruct[]",
          "name": "",
          "type": "tuple[]"
        }
      ],
      "stateMutability": "view",
      "type": "function"
    },
    {
      "inputs": [
        {
          "internalType": "uint256",
          "name": "_id",
          "type": "uint256"
        }
      ],
      "name": "getWinner",
      "outputs": [],
      "stateMutability": "nonpayable",
      "type": "function"
    },
    {
      "inputs": [
        {
          "internalType": "uint256",
          "name": "",
          "type": "uint256"
        },
        {
          "internalType": "address",
          "name": "",
          "type": "address"
        }
      ],
      "name": "isListed",
      "outputs": [
        {
          "internalType": "bool",
          "name": "",
          "type": "bool"
        }
      ],
      "stateMutability": "view",
      "type": "function"
    },
    {
      "inputs": [
        {
          "internalType": "uint256",
          "name": "_id",
          "type": "uint256"
        },
        {
          "internalType": "uint256",
          "name": "_totalPower",
          "type": "uint256"
        }
      ],
      "name": "joinGame",
      "outputs": [],
      "stateMutability": "payable",
      "type": "function"
    },
    {
      "inputs": [
        {
          "internalType": "uint256",
          "name": "gameId",
          "type": "uint256"
        }
      ],
      "name": "payout",
      "outputs": [],
      "stateMutability": "nonpayable",
      "type": "function"
    },
    {
      "inputs": [
        {
          "internalType": "uint256",
          "name": "",
          "type": "uint256"
        },
        {
          "internalType": "uint256",
          "name": "",
          "type": "uint256"
        }
      ],
      "name": "players",
      "outputs": [
        {
          "internalType": "uint256",
          "name": "id",
          "type": "uint256"
        },
        {
          "internalType": "uint256",
          "name": "gameId",
          "type": "uint256"
        },
        {
          "internalType": "address",
          "name": "account",
          "type": "address"
        },
        {
          "internalType": "uint256",
          "name": "power",
          "type": "uint256"
        }
      ],
      "stateMutability": "view",
      "type": "function"
    },
    {
      "inputs": [],
      "name": "sendMoney",
      "outputs": [],
      "stateMutability": "payable",
      "type": "function"
    },
    {
      "inputs": [],
      "name": "servicePct",
      "outputs": [
        {
          "internalType": "uint256",
          "name": "",
          "type": "uint256"
        }
      ],
      "stateMutability": "view",
      "type": "function"
    },
    {
      "inputs": [
        {
          "internalType": "uint256",
          "name": "_pct",
          "type": "uint256"
        }
      ],
      "name": "setFeePercent",
      "outputs": [],
      "stateMutability": "nonpayable",
      "type": "function"
    },
    {
      "inputs": [],
      "name": "totalBalance",
      "outputs": [
        {
          "internalType": "uint256",
          "name": "",
          "type": "uint256"
        }
      ],
      "stateMutability": "view",
      "type": "function"
    }
  ],
  "bytecode": "0x608060405234801561001057600080fd5b50604051611b4f380380611b4f83398101604081905261002f9161003a565b506001600055610053565b60006020828403121561004c57600080fd5b5051919050565b611aed806100626000396000f3fe60806040526004361061011f5760003560e01c8063998f1b80116100a0578063c04c594711610064578063c04c5947146103d6578063cbedbf5a14610220578063e01ef6e6146103eb578063e115234314610401578063e428cd311461042157600080fd5b8063998f1b801461031b578063a2f77bcc1461036a578063ad7a672f14610397578063ae4d9dc7146103ad578063b60b9fcb146103c357600080fd5b806348e837b9116100e757806348e837b91461026f57806370370dd6146102825780637ce3489b146102c2578063872ff923146102e25780638accecf8146102f757600080fd5b80630210d75114610124578063117a5b901461014f578063248a55a1146102005780634129b2c914610222578063460e204914610242575b600080fd5b34801561013057600080fd5b5061013961045c565b60405161014691906118ba565b60405180910390f35b34801561015b57600080fd5b506101bc61016a366004611908565b6006602052600090815260409020805460018201546002830154600384015460049094015492936001600160a01b0392831693919290919081169060ff600160a01b8204811691600160a81b90041687565b604080519788526001600160a01b0396871660208901528701949094526060860192909252909216608084015290151560a0830152151560c082015260e001610146565b34801561020c57600080fd5b5061022061021b366004611908565b610638565b005b34801561022e57600080fd5b5061022061023d366004611908565b61079e565b34801561024e57600080fd5b5061026261025d366004611908565b610b08565b6040516101469190611921565b61022061027d366004611908565b610ba5565b34801561028e57600080fd5b506102b261029d366004611908565b60056020526000908152604090205460ff1681565b6040519015158152602001610146565b3480156102ce57600080fd5b506102206102dd366004611908565b610e21565b3480156102ee57600080fd5b50610139610e98565b34801561030357600080fd5b5061030d60015481565b604051908152602001610146565b34801561032757600080fd5b5061033b61033636600461198e565b61106c565b604051610146949392919093845260208401929092526001600160a01b03166040830152606082015260800190565b34801561037657600080fd5b5061038a610385366004611908565b6110be565b60405161014691906119b0565b3480156103a357600080fd5b5061030d60035481565b3480156103b957600080fd5b5061030d60025481565b6102206103d136600461198e565b611143565b3480156103e257600080fd5b506101396112b8565b3480156103f757600080fd5b5061030d60045481565b34801561040d57600080fd5b5061022061041c366004611908565b61148e565b34801561042d57600080fd5b506102b261043c3660046119be565b600860209081526000928352604080842090915290825290205460ff1681565b6060600060015b60015481116104d357600081815260066020526040902060040154600160a01b900460ff161580156104ae57506000818152600660205260409020600101546001600160a01b031633145b156104c157816104bd81611a10565b9250505b806104cb81611a10565b915050610463565b508067ffffffffffffffff8111156104ed576104ed611a29565b60405190808252806020026020018201604052801561052657816020015b610513611828565b81526020019060019003908161050b5790505b509150600060015b600154811161063257600081815260066020526040902060040154600160a01b900460ff1615801561057957506000818152600660205260409020600101546001600160a01b031633145b1561062057600081815260066020908152604091829020825160e0810184528154815260018201546001600160a01b03908116938201939093526002820154938101939093526003810154606084015260040154908116608083015260ff600160a01b82048116151560a0840152600160a81b90910416151560c0820152848361060281611a10565b94508151811061061457610614611a3f565b60200260200101819052505b8061062a81611a10565b91505061052e565b50505090565b60008181526005602052604090205460ff1661068c5760405162461bcd60e51b815260206004820152600e60248201526d11d85b59481b9bdd08199bdd5b9960921b60448201526064015b60405180910390fd5b6000818152600660205260409020600101546001600160a01b031633146106eb5760405162461bcd60e51b8152602060048201526013602482015272556e617574686f72697a656420656e7469747960681b6044820152606401610683565b600081815260076020526040902080548061070857610708611a55565b60008281526020808220600460001990940193840201828155600181018390556002810180546001600160a01b031916905560039081018390559290935583815260088352604080822033808452908552818320805460ff1916905585835260069094529020015461077a919061164c565b6000908152600660205260409020600401805460ff60a01b1916600160a01b179055565b60008181526005602052604090205460ff166107f25760405162461bcd60e51b815260206004820152601360248201527211d85b5948191bd95cc81b9bdd08195e1a5cdd606a1b6044820152606401610683565b600081815260066020526040902060040154600160a81b900460ff16156108535760405162461bcd60e51b815260206004820152601560248201527411d85b5948185b1c9958591e481c185a59081bdd5d605a1b6044820152606401610683565b6000818152600660205260409020600290810154146108be5760405162461bcd60e51b815260206004820152602160248201527f47616d65206e656564732065786163746c792032207061727469636970616e746044820152607360f81b6064820152608401610683565b600081815260076020908152604080832080548251818502810185019093528083529192909190849084015b828210156109475760008481526020908190206040805160808101825260048602909201805483526001808201548486015260028201546001600160a01b03169284019290925260030154606083015290835290920191016108ea565b505050509050805160021461099e5760405162461bcd60e51b815260206004820152601960248201527f496e76616c6964206e756d626572206f6620706c6179657273000000000000006044820152606401610683565b806000815181106109b1576109b1611a3f565b602002602001015160600151816001815181106109d0576109d0611a3f565b6020026020010151606001511115610a4057806001815181106109f5576109f5611a3f565b6020026020010151604001516006600084815260200190815260200160002060040160006101000a8154816001600160a01b0302191690836001600160a01b03160217905550610ab7565b80600181518110610a5357610a53611a3f565b60200260200101516060015181600081518110610a7257610a72611a3f565b6020026020010151606001511115610a9757806000815181106109f5576109f5611a3f565b600082815260066020526040902060040180546001600160a01b03191690555b600082815260066020526040812060030154610ad4906002611a6b565b60008481526006602052604090206003810154600490910154919250610b03916001600160a01b0316856116ac565b505050565b606060076000838152602001908152602001600020805480602002602001604051908101604052809291908181526020016000905b82821015610b9a5760008481526020908190206040805160808101825260048602909201805483526001808201548486015260028201546001600160a01b0316928401929092526003015460608301529083529092019101610b3d565b505050509050919050565b60003411610bf55760405162461bcd60e51b815260206004820152601f60248201527f5374616b65206d7573742062652067726561746572207468616e207a65726f006044820152606401610683565b60018054906000610c0583611a10565b9190505550610c12611828565b60016002819055506001548160000181815250503481606001818152505060018160400181815250503381602001906001600160a01b031690816001600160a01b0316815250508060066000836000015181526020019081526020016000206000820151816000015560208201518160010160006101000a8154816001600160a01b0302191690836001600160a01b03160217905550604082015181600201556060820151816003015560808201518160040160006101000a8154816001600160a01b0302191690836001600160a01b0316021790555060a08201518160040160146101000a81548160ff02191690831515021790555060c08201518160040160156101000a81548160ff0219169083151502179055509050506001600560008360000151815260200190815260200160002060006101000a81548160ff02191690831515021790555060006040518060800160405280600254815260200183600001518152602001336001600160a01b03168152602001848152509050600760006001548152602001908152602001600020819080600181540180825580915050600190039060005260206000209060040201600090919091909150600082015181600001556020820151816001015560408201518160020160006101000a8154816001600160a01b0302191690836001600160a01b03160217905550606082015181600301555050505050565b600081118015610e325750600a8111155b610e935760405162461bcd60e51b815260206004820152602c60248201527f4665652070657263656e74206d75737420626520696e207468652072616e676560448201526b206f66202831202d2031302960a01b6064820152608401610683565b600455565b6060600060015b6001548111610f0e57600081815260066020526040902060040154600160a01b900460ff16158015610ee95750600081815260066020526040902060040154600160a81b900460ff165b15610efc5781610ef881611a10565b9250505b80610f0681611a10565b915050610e9f565b508067ffffffffffffffff811115610f2857610f28611a29565b604051908082528060200260200182016040528015610f6157816020015b610f4e611828565b815260200190600190039081610f465790505b509150600060015b600154811161063257600081815260066020526040902060040154600160a01b900460ff16158015610fb35750600081815260066020526040902060040154600160a81b900460ff165b1561105a57600081815260066020908152604091829020825160e0810184528154815260018201546001600160a01b03908116938201939093526002820154938101939093526003810154606084015260040154908116608083015260ff600160a01b82048116151560a0840152600160a81b90910416151560c0820152848361103c81611a10565b94508151811061104e5761104e611a3f565b60200260200101819052505b8061106481611a10565b915050610f69565b6007602052816000526040600020818154811061108857600080fd5b6000918252602090912060049091020180546001820154600283015460039093015491945092506001600160a01b039091169084565b6110c6611828565b50600090815260066020908152604091829020825160e0810184528154815260018201546001600160a01b03908116938201939093526002820154938101939093526003810154606084015260040154908116608083015260ff600160a01b82048116151560a0840152600160a81b90910416151560c082015290565b60008281526006602052604090206003015434146111a35760405162461bcd60e51b815260206004820152601f60248201527f656e7465722074686520726967687420616d6f756e74206f662076616c7565006044820152606401610683565b600082815260066020526040902060029081015411156111fd5760405162461bcd60e51b815260206004820152601560248201527463616e6e6f7420656e746572207468652067616d6560581b6044820152606401610683565b6002805490600061120d83611a10565b9091555050600082815260066020526040812060020180549161122f83611a10565b90915550506040805160808101825260028054825260208083019586523383850190815260608401958652600180546000908152600784529586208054808301825590875292909520935160049092029093019081559451928501929092555190830180546001600160a01b0319166001600160a01b0390921691909117905551600390910155565b6060600060015b600154811161132f57600081815260066020526040902060040154600160a01b900460ff1615801561130a5750600081815260066020526040902060040154600160a81b900460ff16155b1561131d578161131981611a10565b9250505b8061132781611a10565b9150506112bf565b508067ffffffffffffffff81111561134957611349611a29565b60405190808252806020026020018201604052801561138257816020015b61136f611828565b8152602001906001900390816113675790505b509150600060015b600154811161063257600081815260066020526040902060040154600160a01b900460ff161580156113d55750600081815260066020526040902060040154600160a81b900460ff16155b1561147c57600081815260066020908152604091829020825160e0810184528154815260018201546001600160a01b03908116938201939093526002820154938101939093526003810154606084015260040154908116608083015260ff600160a01b82048116151560a0840152600160a81b90910416151560c0820152848361145e81611a10565b94508151811061147057611470611a3f565b60200260200101819052505b8061148681611a10565b91505061138a565b6114966117ae565b60008181526005602052604090205460ff166114ea5760405162461bcd60e51b815260206004820152601360248201527211d85b5948191bd95cc81b9bdd08195e1a5cdd606a1b6044820152606401610683565b600081815260066020526040902060040154600160a81b900460ff161561154b5760405162461bcd60e51b815260206004820152601560248201527411d85b5948185b1c9958591e481c185a59081bdd5d605a1b6044820152606401610683565b6000818152600660209081526040808320815160e0810183528154815260018201546001600160a01b039081169482019490945260028083015493820193909352600382015460608201819052600490920154938416608082015260ff600160a01b85048116151560a0830152600160a81b909404909316151560c08401529192916115d691611807565b905060006115fa60646115f46004548561180790919063ffffffff16565b9061181c565b9050600061160982600261181c565b905061161984602001518261164c565b5050506000828152600660205260409020600401805460ff60a81b1916600160a81b179055506116496001600055565b50565b6000826001600160a01b03168260405160006040518083038185875af1925050503d8060008114611699576040519150601f19603f3d011682016040523d82523d6000602084013e61169e565b606091505b5050905080610b0357600080fd5b60006116b9846002611a6b565b905060006064600454836116cd9190611a6b565b6116d79190611a82565b905060006116e58284611aa4565b90506001600160a01b03851661177b576000611702600283611a82565b905061174f6007600087815260200190815260200160002060008154811061172c5761172c611a3f565b60009182526020909120600260049092020101546001600160a01b03168261164c565b600085815260076020526040902080546117759190600190811061172c5761172c611a3f565b50611785565b611785858261164c565b5050506000908152600660205260409020600401805460ff60a81b1916600160a81b1790555050565b6002600054036118005760405162461bcd60e51b815260206004820152601f60248201527f5265656e7472616e637947756172643a207265656e7472616e742063616c6c006044820152606401610683565b6002600055565b60006118138284611a6b565b90505b92915050565b60006118138284611a82565b6040805160e081018252600080825260208201819052918101829052606081018290526080810182905260a0810182905260c081019190915290565b80518252602081015160018060a01b0380821660208501526040830151604085015260608301516060850152806080840151166080850152505060a0810151151560a083015260c0810151151560c08301525050565b6020808252825182820181905260009190848201906040850190845b818110156118fc576118e9838551611864565b9284019260e092909201916001016118d6565b50909695505050505050565b60006020828403121561191a57600080fd5b5035919050565b602080825282518282018190526000919060409081850190868401855b82811015611981578151805185528681015187860152858101516001600160a01b031686860152606090810151908501526080909301929085019060010161193e565b5091979650505050505050565b600080604083850312156119a157600080fd5b50508035926020909101359150565b60e081016118168284611864565b600080604083850312156119d157600080fd5b8235915060208301356001600160a01b03811681146119ef57600080fd5b809150509250929050565b634e487b7160e01b600052601160045260246000fd5b600060018201611a2257611a226119fa565b5060010190565b634e487b7160e01b600052604160045260246000fd5b634e487b7160e01b600052603260045260246000fd5b634e487b7160e01b600052603160045260246000fd5b8082028115828204841417611816576118166119fa565b600082611a9f57634e487b7160e01b600052601260045260246000fd5b500490565b81810381811115611816576118166119fa56fea26469706673582212202a3b8512d2b1a937834ab81728e8e83cbe0d56e7df848b0278f3b1d120e480fa64736f6c63430008160033",
  "linkReferences": {},
  "deployedLinkReferences": {}
}